{
  "contracts/GiftCenter.sol": {
    "GiftCenter": {
      "abi": [
        {
          "anonymous": false,
          "inputs": [
            {
              "indexed": false,
              "internalType": "address",
              "name": "from",
              "type": "address"
            },
            {
              "indexed": false,
              "internalType": "address",
              "name": "to",
              "type": "address"
            },
            {
              "indexed": false,
              "internalType": "string",
              "name": "message",
              "type": "string"
            },
            {
              "indexed": false,
              "internalType": "uint256",
              "name": "amount",
              "type": "uint256"
            },
            {
              "indexed": false,
              "internalType": "uint256",
              "name": "time",
              "type": "uint256"
            }
          ],
          "name": "Gifted",
          "type": "event"
        },
        {
          "anonymous": false,
          "inputs": [
            {
              "indexed": false,
              "internalType": "address",
              "name": "from",
              "type": "address"
            },
            {
              "indexed": false,
              "internalType": "uint256",
              "name": "giftNumber",
              "type": "uint256"
            },
            {
              "indexed": false,
              "internalType": "uint256",
              "name": "amount",
              "type": "uint256"
            }
          ],
          "name": "withDrawal",
          "type": "event"
        },
        {
          "inputs": [],
          "name": "getBalance",
          "outputs": [
            {
              "internalType": "uint256",
              "name": "",
              "type": "uint256"
            }
          ],
          "stateMutability": "view",
          "type": "function"
        },
        {
          "inputs": [
            {
              "internalType": "address",
              "name": "_recipient",
              "type": "address"
            },
            {
              "internalType": "string",
              "name": "_message",
              "type": "string"
            }
          ],
          "name": "sendGift",
          "outputs": [],
          "stateMutability": "payable",
          "type": "function"
        },
        {
          "inputs": [
            {
              "internalType": "uint256",
              "name": "_amt",
              "type": "uint256"
            }
          ],
          "name": "withdraw",
          "outputs": [],
          "stateMutability": "nonpayable",
          "type": "function"
        },
        {
          "stateMutability": "payable",
          "type": "receive"
        }
      ],
      "evm": {
        "bytecode": {
          "linkReferences": {},
          "object": "608060405234801561001057600080fd5b5061069b806100206000396000f3fe6080604052600436106100385760003560e01c806312065fe0146100445780632e1a7d4d1461006f5780632e9ffc77146100985761003f565b3661003f57005b600080fd5b34801561005057600080fd5b506100596100b4565b6040516100669190610214565b60405180910390f35b34801561007b57600080fd5b506100966004803603810190610091919061026f565b6100bc565b005b6100b260048036038101906100ad9190610440565b610106565b005b600047905090565b3373ffffffffffffffffffffffffffffffffffffffff166108fc829081150290604051600060405180830381858888f19350505050158015610102573d6000803e3d6000fd5b5050565b3373ffffffffffffffffffffffffffffffffffffffff168273ffffffffffffffffffffffffffffffffffffffff161415610175576040517f08c379a000000000000000000000000000000000000000000000000000000000815260040161016c906104f9565b60405180910390fd5b600034116101b8576040517f08c379a00000000000000000000000000000000000000000000000000000000081526004016101af90610565565b60405180910390fd5b7fcab7b6a6eb4803fc9b26dc2d05a900a52b7843818c9a6d916dcce8d6e552945333838334426040516101ef95949392919061060b565b60405180910390a15050565b6000819050919050565b61020e816101fb565b82525050565b60006020820190506102296000830184610205565b92915050565b6000604051905090565b600080fd5b600080fd5b61024c816101fb565b811461025757600080fd5b50565b60008135905061026981610243565b92915050565b60006020828403121561028557610284610239565b5b60006102938482850161025a565b91505092915050565b600073ffffffffffffffffffffffffffffffffffffffff82169050919050565b60006102c78261029c565b9050919050565b6102d7816102bc565b81146102e257600080fd5b50565b6000813590506102f4816102ce565b92915050565b600080fd5b600080fd5b6000601f19601f8301169050919050565b7f4e487b7100000000000000000000000000000000000000000000000000000000600052604160045260246000fd5b61034d82610304565b810181811067ffffffffffffffff8211171561036c5761036b610315565b5b80604052505050565b600061037f61022f565b905061038b8282610344565b919050565b600067ffffffffffffffff8211156103ab576103aa610315565b5b6103b482610304565b9050602081019050919050565b82818337600083830152505050565b60006103e36103de84610390565b610375565b9050828152602081018484840111156103ff576103fe6102ff565b5b61040a8482856103c1565b509392505050565b600082601f830112610427576104266102fa565b5b81356104378482602086016103d0565b91505092915050565b6000806040838503121561045757610456610239565b5b6000610465858286016102e5565b925050602083013567ffffffffffffffff8111156104865761048561023e565b5b61049285828601610412565b9150509250929050565b600082825260208201905092915050565b7f43616e2774206769667420796f757273656c6600000000000000000000000000600082015250565b60006104e360138361049c565b91506104ee826104ad565b602082019050919050565b60006020820190508181036000830152610512816104d6565b9050919050565b7f41646420736f6d652067696674696e6720616d6f756e74000000000000000000600082015250565b600061054f60178361049c565b915061055a82610519565b602082019050919050565b6000602082019050818103600083015261057e81610542565b9050919050565b61058e816102bc565b82525050565b600081519050919050565b60005b838110156105bd5780820151818401526020810190506105a2565b838111156105cc576000848401525b50505050565b60006105dd82610594565b6105e7818561049c565b93506105f781856020860161059f565b61060081610304565b840191505092915050565b600060a0820190506106206000830188610585565b61062d6020830187610585565b818103604083015261063f81866105d2565b905061064e6060830185610205565b61065b6080830184610205565b969550505050505056fea264697066735822122042a37e1308c07c781b00243dfc546fb903f9c9ca1b46a3fa849b39c9224ec5f064736f6c63430008090033",
          "opcodes": "PUSH1 0x80 PUSH1 0x40 MSTORE CALLVALUE DUP1 ISZERO PUSH2 0x10 JUMPI PUSH1 0x0 DUP1 REVERT JUMPDEST POP PUSH2 0x69B DUP1 PUSH2 0x20 PUSH1 0x0 CODECOPY PUSH1 0x0 RETURN INVALID PUSH1 0x80 PUSH1 0x40 MSTORE PUSH1 0x4 CALLDATASIZE LT PUSH2 0x38 JUMPI PUSH1 0x0 CALLDATALOAD PUSH1 0xE0 SHR DUP1 PUSH4 0x12065FE0 EQ PUSH2 0x44 JUMPI DUP1 PUSH4 0x2E1A7D4D EQ PUSH2 0x6F JUMPI DUP1 PUSH4 0x2E9FFC77 EQ PUSH2 0x98 JUMPI PUSH2 0x3F JUMP JUMPDEST CALLDATASIZE PUSH2 0x3F JUMPI STOP JUMPDEST PUSH1 0x0 DUP1 REVERT JUMPDEST CALLVALUE DUP1 ISZERO PUSH2 0x50 JUMPI PUSH1 0x0 DUP1 REVERT JUMPDEST POP PUSH2 0x59 PUSH2 0xB4 JUMP JUMPDEST PUSH1 0x40 MLOAD PUSH2 0x66 SWAP2 SWAP1 PUSH2 0x214 JUMP JUMPDEST PUSH1 0x40 MLOAD DUP1 SWAP2 SUB SWAP1 RETURN JUMPDEST CALLVALUE DUP1 ISZERO PUSH2 0x7B JUMPI PUSH1 0x0 DUP1 REVERT JUMPDEST POP PUSH2 0x96 PUSH1 0x4 DUP1 CALLDATASIZE SUB DUP2 ADD SWAP1 PUSH2 0x91 SWAP2 SWAP1 PUSH2 0x26F JUMP JUMPDEST PUSH2 0xBC JUMP JUMPDEST STOP JUMPDEST PUSH2 0xB2 PUSH1 0x4 DUP1 CALLDATASIZE SUB DUP2 ADD SWAP1 PUSH2 0xAD SWAP2 SWAP1 PUSH2 0x440 JUMP JUMPDEST PUSH2 0x106 JUMP JUMPDEST STOP JUMPDEST PUSH1 0x0 SELFBALANCE SWAP1 POP SWAP1 JUMP JUMPDEST CALLER PUSH20 0xFFFFFFFFFFFFFFFFFFFFFFFFFFFFFFFFFFFFFFFF AND PUSH2 0x8FC DUP3 SWAP1 DUP2 ISZERO MUL SWAP1 PUSH1 0x40 MLOAD PUSH1 0x0 PUSH1 0x40 MLOAD DUP1 DUP4 SUB DUP2 DUP6 DUP9 DUP9 CALL SWAP4 POP POP POP POP ISZERO DUP1 ISZERO PUSH2 0x102 JUMPI RETURNDATASIZE PUSH1 0x0 DUP1 RETURNDATACOPY RETURNDATASIZE PUSH1 0x0 REVERT JUMPDEST POP POP JUMP JUMPDEST CALLER PUSH20 0xFFFFFFFFFFFFFFFFFFFFFFFFFFFFFFFFFFFFFFFF AND DUP3 PUSH20 0xFFFFFFFFFFFFFFFFFFFFFFFFFFFFFFFFFFFFFFFF AND EQ ISZERO PUSH2 0x175 JUMPI PUSH1 0x40 MLOAD PUSH32 0x8C379A000000000000000000000000000000000000000000000000000000000 DUP2 MSTORE PUSH1 0x4 ADD PUSH2 0x16C SWAP1 PUSH2 0x4F9 JUMP JUMPDEST PUSH1 0x40 MLOAD DUP1 SWAP2 SUB SWAP1 REVERT JUMPDEST PUSH1 0x0 CALLVALUE GT PUSH2 0x1B8 JUMPI PUSH1 0x40 MLOAD PUSH32 0x8C379A000000000000000000000000000000000000000000000000000000000 DUP2 MSTORE PUSH1 0x4 ADD PUSH2 0x1AF SWAP1 PUSH2 0x565 JUMP JUMPDEST PUSH1 0x40 MLOAD DUP1 SWAP2 SUB SWAP1 REVERT JUMPDEST PUSH32 0xCAB7B6A6EB4803FC9B26DC2D05A900A52B7843818C9A6D916DCCE8D6E5529453 CALLER DUP4 DUP4 CALLVALUE TIMESTAMP PUSH1 0x40 MLOAD PUSH2 0x1EF SWAP6 SWAP5 SWAP4 SWAP3 SWAP2 SWAP1 PUSH2 0x60B JUMP JUMPDEST PUSH1 0x40 MLOAD DUP1 SWAP2 SUB SWAP1 LOG1 POP POP JUMP JUMPDEST PUSH1 0x0 DUP2 SWAP1 POP SWAP2 SWAP1 POP JUMP JUMPDEST PUSH2 0x20E DUP2 PUSH2 0x1FB JUMP JUMPDEST DUP3 MSTORE POP POP JUMP JUMPDEST PUSH1 0x0 PUSH1 0x20 DUP3 ADD SWAP1 POP PUSH2 0x229 PUSH1 0x0 DUP4 ADD DUP5 PUSH2 0x205 JUMP JUMPDEST SWAP3 SWAP2 POP POP JUMP JUMPDEST PUSH1 0x0 PUSH1 0x40 MLOAD SWAP1 POP SWAP1 JUMP JUMPDEST PUSH1 0x0 DUP1 REVERT JUMPDEST PUSH1 0x0 DUP1 REVERT JUMPDEST PUSH2 0x24C DUP2 PUSH2 0x1FB JUMP JUMPDEST DUP2 EQ PUSH2 0x257 JUMPI PUSH1 0x0 DUP1 REVERT JUMPDEST POP JUMP JUMPDEST PUSH1 0x0 DUP2 CALLDATALOAD SWAP1 POP PUSH2 0x269 DUP2 PUSH2 0x243 JUMP JUMPDEST SWAP3 SWAP2 POP POP JUMP JUMPDEST PUSH1 0x0 PUSH1 0x20 DUP3 DUP5 SUB SLT ISZERO PUSH2 0x285 JUMPI PUSH2 0x284 PUSH2 0x239 JUMP JUMPDEST JUMPDEST PUSH1 0x0 PUSH2 0x293 DUP5 DUP3 DUP6 ADD PUSH2 0x25A JUMP JUMPDEST SWAP2 POP POP SWAP3 SWAP2 POP POP JUMP JUMPDEST PUSH1 0x0 PUSH20 0xFFFFFFFFFFFFFFFFFFFFFFFFFFFFFFFFFFFFFFFF DUP3 AND SWAP1 POP SWAP2 SWAP1 POP JUMP JUMPDEST PUSH1 0x0 PUSH2 0x2C7 DUP3 PUSH2 0x29C JUMP JUMPDEST SWAP1 POP SWAP2 SWAP1 POP JUMP JUMPDEST PUSH2 0x2D7 DUP2 PUSH2 0x2BC JUMP JUMPDEST DUP2 EQ PUSH2 0x2E2 JUMPI PUSH1 0x0 DUP1 REVERT JUMPDEST POP JUMP JUMPDEST PUSH1 0x0 DUP2 CALLDATALOAD SWAP1 POP PUSH2 0x2F4 DUP2 PUSH2 0x2CE JUMP JUMPDEST SWAP3 SWAP2 POP POP JUMP JUMPDEST PUSH1 0x0 DUP1 REVERT JUMPDEST PUSH1 0x0 DUP1 REVERT JUMPDEST PUSH1 0x0 PUSH1 0x1F NOT PUSH1 0x1F DUP4 ADD AND SWAP1 POP SWAP2 SWAP1 POP JUMP JUMPDEST PUSH32 0x4E487B7100000000000000000000000000000000000000000000000000000000 PUSH1 0x0 MSTORE PUSH1 0x41 PUSH1 0x4 MSTORE PUSH1 0x24 PUSH1 0x0 REVERT JUMPDEST PUSH2 0x34D DUP3 PUSH2 0x304 JUMP JUMPDEST DUP2 ADD DUP2 DUP2 LT PUSH8 0xFFFFFFFFFFFFFFFF DUP3 GT OR ISZERO PUSH2 0x36C JUMPI PUSH2 0x36B PUSH2 0x315 JUMP JUMPDEST JUMPDEST DUP1 PUSH1 0x40 MSTORE POP POP POP JUMP JUMPDEST PUSH1 0x0 PUSH2 0x37F PUSH2 0x22F JUMP JUMPDEST SWAP1 POP PUSH2 0x38B DUP3 DUP3 PUSH2 0x344 JUMP JUMPDEST SWAP2 SWAP1 POP JUMP JUMPDEST PUSH1 0x0 PUSH8 0xFFFFFFFFFFFFFFFF DUP3 GT ISZERO PUSH2 0x3AB JUMPI PUSH2 0x3AA PUSH2 0x315 JUMP JUMPDEST JUMPDEST PUSH2 0x3B4 DUP3 PUSH2 0x304 JUMP JUMPDEST SWAP1 POP PUSH1 0x20 DUP2 ADD SWAP1 POP SWAP2 SWAP1 POP JUMP JUMPDEST DUP3 DUP2 DUP4 CALLDATACOPY PUSH1 0x0 DUP4 DUP4 ADD MSTORE POP POP POP JUMP JUMPDEST PUSH1 0x0 PUSH2 0x3E3 PUSH2 0x3DE DUP5 PUSH2 0x390 JUMP JUMPDEST PUSH2 0x375 JUMP JUMPDEST SWAP1 POP DUP3 DUP2 MSTORE PUSH1 0x20 DUP2 ADD DUP5 DUP5 DUP5 ADD GT ISZERO PUSH2 0x3FF JUMPI PUSH2 0x3FE PUSH2 0x2FF JUMP JUMPDEST JUMPDEST PUSH2 0x40A DUP5 DUP3 DUP6 PUSH2 0x3C1 JUMP JUMPDEST POP SWAP4 SWAP3 POP POP POP JUMP JUMPDEST PUSH1 0x0 DUP3 PUSH1 0x1F DUP4 ADD SLT PUSH2 0x427 JUMPI PUSH2 0x426 PUSH2 0x2FA JUMP JUMPDEST JUMPDEST DUP2 CALLDATALOAD PUSH2 0x437 DUP5 DUP3 PUSH1 0x20 DUP7 ADD PUSH2 0x3D0 JUMP JUMPDEST SWAP2 POP POP SWAP3 SWAP2 POP POP JUMP JUMPDEST PUSH1 0x0 DUP1 PUSH1 0x40 DUP4 DUP6 SUB SLT ISZERO PUSH2 0x457 JUMPI PUSH2 0x456 PUSH2 0x239 JUMP JUMPDEST JUMPDEST PUSH1 0x0 PUSH2 0x465 DUP6 DUP3 DUP7 ADD PUSH2 0x2E5 JUMP JUMPDEST SWAP3 POP POP PUSH1 0x20 DUP4 ADD CALLDATALOAD PUSH8 0xFFFFFFFFFFFFFFFF DUP2 GT ISZERO PUSH2 0x486 JUMPI PUSH2 0x485 PUSH2 0x23E JUMP JUMPDEST JUMPDEST PUSH2 0x492 DUP6 DUP3 DUP7 ADD PUSH2 0x412 JUMP JUMPDEST SWAP2 POP POP SWAP3 POP SWAP3 SWAP1 POP JUMP JUMPDEST PUSH1 0x0 DUP3 DUP3 MSTORE PUSH1 0x20 DUP3 ADD SWAP1 POP SWAP3 SWAP2 POP POP JUMP JUMPDEST PUSH32 0x43616E2774206769667420796F757273656C6600000000000000000000000000 PUSH1 0x0 DUP3 ADD MSTORE POP JUMP JUMPDEST PUSH1 0x0 PUSH2 0x4E3 PUSH1 0x13 DUP4 PUSH2 0x49C JUMP JUMPDEST SWAP2 POP PUSH2 0x4EE DUP3 PUSH2 0x4AD JUMP JUMPDEST PUSH1 0x20 DUP3 ADD SWAP1 POP SWAP2 SWAP1 POP JUMP JUMPDEST PUSH1 0x0 PUSH1 0x20 DUP3 ADD SWAP1 POP DUP2 DUP2 SUB PUSH1 0x0 DUP4 ADD MSTORE PUSH2 0x512 DUP2 PUSH2 0x4D6 JUMP JUMPDEST SWAP1 POP SWAP2 SWAP1 POP JUMP JUMPDEST PUSH32 0x41646420736F6D652067696674696E6720616D6F756E74000000000000000000 PUSH1 0x0 DUP3 ADD MSTORE POP JUMP JUMPDEST PUSH1 0x0 PUSH2 0x54F PUSH1 0x17 DUP4 PUSH2 0x49C JUMP JUMPDEST SWAP2 POP PUSH2 0x55A DUP3 PUSH2 0x519 JUMP JUMPDEST PUSH1 0x20 DUP3 ADD SWAP1 POP SWAP2 SWAP1 POP JUMP JUMPDEST PUSH1 0x0 PUSH1 0x20 DUP3 ADD SWAP1 POP DUP2 DUP2 SUB PUSH1 0x0 DUP4 ADD MSTORE PUSH2 0x57E DUP2 PUSH2 0x542 JUMP JUMPDEST SWAP1 POP SWAP2 SWAP1 POP JUMP JUMPDEST PUSH2 0x58E DUP2 PUSH2 0x2BC JUMP JUMPDEST DUP3 MSTORE POP POP JUMP JUMPDEST PUSH1 0x0 DUP2 MLOAD SWAP1 POP SWAP2 SWAP1 POP JUMP JUMPDEST PUSH1 0x0 JUMPDEST DUP4 DUP2 LT ISZERO PUSH2 0x5BD JUMPI DUP1 DUP3 ADD MLOAD DUP2 DUP5 ADD MSTORE PUSH1 0x20 DUP2 ADD SWAP1 POP PUSH2 0x5A2 JUMP JUMPDEST DUP4 DUP2 GT ISZERO PUSH2 0x5CC JUMPI PUSH1 0x0 DUP5 DUP5 ADD MSTORE JUMPDEST POP POP POP POP JUMP JUMPDEST PUSH1 0x0 PUSH2 0x5DD DUP3 PUSH2 0x594 JUMP JUMPDEST PUSH2 0x5E7 DUP2 DUP6 PUSH2 0x49C JUMP JUMPDEST SWAP4 POP PUSH2 0x5F7 DUP2 DUP6 PUSH1 0x20 DUP7 ADD PUSH2 0x59F JUMP JUMPDEST PUSH2 0x600 DUP2 PUSH2 0x304 JUMP JUMPDEST DUP5 ADD SWAP2 POP POP SWAP3 SWAP2 POP POP JUMP JUMPDEST PUSH1 0x0 PUSH1 0xA0 DUP3 ADD SWAP1 POP PUSH2 0x620 PUSH1 0x0 DUP4 ADD DUP9 PUSH2 0x585 JUMP JUMPDEST PUSH2 0x62D PUSH1 0x20 DUP4 ADD DUP8 PUSH2 0x585 JUMP JUMPDEST DUP2 DUP2 SUB PUSH1 0x40 DUP4 ADD MSTORE PUSH2 0x63F DUP2 DUP7 PUSH2 0x5D2 JUMP JUMPDEST SWAP1 POP PUSH2 0x64E PUSH1 0x60 DUP4 ADD DUP6 PUSH2 0x205 JUMP JUMPDEST PUSH2 0x65B PUSH1 0x80 DUP4 ADD DUP5 PUSH2 0x205 JUMP JUMPDEST SWAP7 SWAP6 POP POP POP POP POP POP JUMP INVALID LOG2 PUSH5 0x6970667358 0x22 SLT KECCAK256 TIMESTAMP LOG3 PUSH31 0x1308C07C781B00243DFC546FB903F9C9CA1B46A3FA849B39C9224EC5F06473 PUSH16 0x6C634300080900330000000000000000 "
        },
        "methodIdentifiers": {
          "getBalance()": "12065fe0",
          "sendGift(address,string)": "2e9ffc77",
          "withdraw(uint256)": "2e1a7d4d"
        }
      }
    }
  }
}