{
  "_format": "hh-sol-artifact-1",
  "contractName": "GiftCenter",
  "sourceName": "contracts/GiftCenter.sol",
  "abi": [
    {
      "anonymous": false,
      "inputs": [
        {
          "indexed": false,
          "internalType": "address",
          "name": "from",
          "type": "address"
        },
        {
          "indexed": false,
          "internalType": "address",
          "name": "to",
          "type": "address"
        },
        {
          "indexed": false,
          "internalType": "string",
          "name": "message",
          "type": "string"
        },
        {
          "indexed": false,
          "internalType": "uint256",
          "name": "amount",
          "type": "uint256"
        },
        {
          "indexed": false,
          "internalType": "uint256",
          "name": "time",
          "type": "uint256"
        }
      ],
      "name": "Gifted",
      "type": "event"
    },
    {
      "anonymous": false,
      "inputs": [
        {
          "indexed": false,
          "internalType": "address",
          "name": "from",
          "type": "address"
        },
        {
          "indexed": false,
          "internalType": "uint256",
          "name": "giftNumber",
          "type": "uint256"
        },
        {
          "indexed": false,
          "internalType": "uint256",
          "name": "amount",
          "type": "uint256"
        }
      ],
      "name": "withDrawal",
      "type": "event"
    },
    {
      "inputs": [],
      "name": "getBalance",
      "outputs": [
        {
          "internalType": "uint256",
          "name": "",
          "type": "uint256"
        }
      ],
      "stateMutability": "view",
      "type": "function"
    },
    {
      "inputs": [
        {
          "internalType": "address",
          "name": "_recipient",
          "type": "address"
        },
        {
          "internalType": "string",
          "name": "_message",
          "type": "string"
        }
      ],
      "name": "sendGift",
      "outputs": [],
      "stateMutability": "payable",
      "type": "function"
    },
    {
      "inputs": [
        {
          "internalType": "uint256",
          "name": "_amt",
          "type": "uint256"
        }
      ],
      "name": "withdraw",
      "outputs": [],
      "stateMutability": "nonpayable",
      "type": "function"
    },
    {
      "stateMutability": "payable",
      "type": "receive"
    }
  ],
  "bytecode": "0x608060405234801561001057600080fd5b5061069b806100206000396000f3fe6080604052600436106100385760003560e01c806312065fe0146100445780632e1a7d4d1461006f5780632e9ffc77146100985761003f565b3661003f57005b600080fd5b34801561005057600080fd5b506100596100b4565b6040516100669190610214565b60405180910390f35b34801561007b57600080fd5b506100966004803603810190610091919061026f565b6100bc565b005b6100b260048036038101906100ad9190610440565b610106565b005b600047905090565b3373ffffffffffffffffffffffffffffffffffffffff166108fc829081150290604051600060405180830381858888f19350505050158015610102573d6000803e3d6000fd5b5050565b3373ffffffffffffffffffffffffffffffffffffffff168273ffffffffffffffffffffffffffffffffffffffff161415610175576040517f08c379a000000000000000000000000000000000000000000000000000000000815260040161016c906104f9565b60405180910390fd5b600034116101b8576040517f08c379a00000000000000000000000000000000000000000000000000000000081526004016101af90610565565b60405180910390fd5b7fcab7b6a6eb4803fc9b26dc2d05a900a52b7843818c9a6d916dcce8d6e552945333838334426040516101ef95949392919061060b565b60405180910390a15050565b6000819050919050565b61020e816101fb565b82525050565b60006020820190506102296000830184610205565b92915050565b6000604051905090565b600080fd5b600080fd5b61024c816101fb565b811461025757600080fd5b50565b60008135905061026981610243565b92915050565b60006020828403121561028557610284610239565b5b60006102938482850161025a565b91505092915050565b600073ffffffffffffffffffffffffffffffffffffffff82169050919050565b60006102c78261029c565b9050919050565b6102d7816102bc565b81146102e257600080fd5b50565b6000813590506102f4816102ce565b92915050565b600080fd5b600080fd5b6000601f19601f8301169050919050565b7f4e487b7100000000000000000000000000000000000000000000000000000000600052604160045260246000fd5b61034d82610304565b810181811067ffffffffffffffff8211171561036c5761036b610315565b5b80604052505050565b600061037f61022f565b905061038b8282610344565b919050565b600067ffffffffffffffff8211156103ab576103aa610315565b5b6103b482610304565b9050602081019050919050565b82818337600083830152505050565b60006103e36103de84610390565b610375565b9050828152602081018484840111156103ff576103fe6102ff565b5b61040a8482856103c1565b509392505050565b600082601f830112610427576104266102fa565b5b81356104378482602086016103d0565b91505092915050565b6000806040838503121561045757610456610239565b5b6000610465858286016102e5565b925050602083013567ffffffffffffffff8111156104865761048561023e565b5b61049285828601610412565b9150509250929050565b600082825260208201905092915050565b7f43616e2774206769667420796f757273656c6600000000000000000000000000600082015250565b60006104e360138361049c565b91506104ee826104ad565b602082019050919050565b60006020820190508181036000830152610512816104d6565b9050919050565b7f41646420736f6d652067696674696e6720616d6f756e74000000000000000000600082015250565b600061054f60178361049c565b915061055a82610519565b602082019050919050565b6000602082019050818103600083015261057e81610542565b9050919050565b61058e816102bc565b82525050565b600081519050919050565b60005b838110156105bd5780820151818401526020810190506105a2565b838111156105cc576000848401525b50505050565b60006105dd82610594565b6105e7818561049c565b93506105f781856020860161059f565b61060081610304565b840191505092915050565b600060a0820190506106206000830188610585565b61062d6020830187610585565b818103604083015261063f81866105d2565b905061064e6060830185610205565b61065b6080830184610205565b969550505050505056fea264697066735822122042a37e1308c07c781b00243dfc546fb903f9c9ca1b46a3fa849b39c9224ec5f064736f6c63430008090033",
  "linkReferences": {},
  "deployedLinkReferences": {}
}