{
  "_format": "hh-sol-artifact-1",
  "contractName": "GiftCenter",
  "sourceName": "contracts/GiftCenter.sol",
  "abi": [
    {
      "anonymous": false,
      "inputs": [
        {
          "indexed": false,
          "internalType": "uint256",
          "name": "count",
          "type": "uint256"
        },
        {
          "indexed": false,
          "internalType": "address",
          "name": "from",
          "type": "address"
        },
        {
          "indexed": false,
          "internalType": "address",
          "name": "to",
          "type": "address"
        },
        {
          "indexed": false,
          "internalType": "string",
          "name": "message",
          "type": "string"
        },
        {
          "indexed": false,
          "internalType": "uint256",
          "name": "amount",
          "type": "uint256"
        },
        {
          "indexed": false,
          "internalType": "uint256",
          "name": "time",
          "type": "uint256"
        }
      ],
      "name": "Gifted",
      "type": "event"
    },
    {
      "anonymous": false,
      "inputs": [
        {
          "indexed": false,
          "internalType": "address",
          "name": "account",
          "type": "address"
        }
      ],
      "name": "currentAccount",
      "type": "event"
    },
    {
      "anonymous": false,
      "inputs": [
        {
          "indexed": false,
          "internalType": "address",
          "name": "from",
          "type": "address"
        },
        {
          "indexed": false,
          "internalType": "uint256",
          "name": "amount",
          "type": "uint256"
        }
      ],
      "name": "withDrawal",
      "type": "event"
    },
    {
      "inputs": [],
      "name": "count",
      "outputs": [
        {
          "internalType": "uint256",
          "name": "",
          "type": "uint256"
        }
      ],
      "stateMutability": "view",
      "type": "function"
    },
    {
      "inputs": [],
      "name": "getBalance",
      "outputs": [
        {
          "internalType": "uint256",
          "name": "",
          "type": "uint256"
        }
      ],
      "stateMutability": "view",
      "type": "function"
    },
    {
      "inputs": [],
      "name": "resetCount",
      "outputs": [],
      "stateMutability": "nonpayable",
      "type": "function"
    },
    {
      "inputs": [
        {
          "internalType": "address",
          "name": "_recipient",
          "type": "address"
        },
        {
          "internalType": "string",
          "name": "_message",
          "type": "string"
        }
      ],
      "name": "sendGift",
      "outputs": [],
      "stateMutability": "payable",
      "type": "function"
    },
    {
      "inputs": [
        {
          "internalType": "address",
          "name": "_account",
          "type": "address"
        }
      ],
      "name": "setAccount",
      "outputs": [],
      "stateMutability": "nonpayable",
      "type": "function"
    },
    {
      "inputs": [
        {
          "internalType": "address",
          "name": "_account",
          "type": "address"
        },
        {
          "internalType": "uint256",
          "name": "_amt",
          "type": "uint256"
        }
      ],
      "name": "withdrawAmount",
      "outputs": [],
      "stateMutability": "nonpayable",
      "type": "function"
    },
    {
      "stateMutability": "payable",
      "type": "receive"
    }
  ],
  "bytecode": "0x608060405234801561001057600080fd5b506108de806100206000396000f3fe6080604052600436106100595760003560e01c806306661abd1461006557806312065fe01461009057806329f6d57c146100bb5780632e9ffc77146100e4578063736fe56514610100578063fd8952921461012957610060565b3661006057005b600080fd5b34801561007157600080fd5b5061007a610140565b6040516100879190610340565b60405180910390f35b34801561009c57600080fd5b506100a5610146565b6040516100b29190610340565b60405180910390f35b3480156100c757600080fd5b506100e260048036038101906100dd91906103cd565b61014e565b005b6100fe60048036038101906100f99190610540565b610188565b005b34801561010c57600080fd5b50610127600480360381019061012291906105c8565b61029a565b005b34801561013557600080fd5b5061013e61031e565b005b60005481565b600047905090565b7ff5d08ab3e0a5ffbbf70cb5bc1dadcfc15fd1969523669b8fdc30bd88150ef16c8160405161017d9190610617565b60405180910390a150565b3373ffffffffffffffffffffffffffffffffffffffff168273ffffffffffffffffffffffffffffffffffffffff1614156101f7576040517f08c379a00000000000000000000000000000000000000000000000000000000081526004016101ee9061068f565b60405180910390fd5b6000341161023a576040517f08c379a0000000000000000000000000000000000000000000000000000000008152600401610231906106fb565b60405180910390fd5b600160008082825461024c919061074a565b925050819055507ff3bb5c396a7acbcfa4de91e8420e15502cf40f2ae53a4b596fec7f72bf3114f3600054338484344260405161028e96959493929190610817565b60405180910390a15050565b8173ffffffffffffffffffffffffffffffffffffffff166108fc829081150290604051600060405180830381858888f193505050501580156102e0573d6000803e3d6000fd5b507f5c170508900198e63fa73283d0445792cef1f42ef9eb905c9e7e6450cfd4f8fc828260405161031292919061087f565b60405180910390a15050565b60008081905550565b6000819050919050565b61033a81610327565b82525050565b60006020820190506103556000830184610331565b92915050565b6000604051905090565b600080fd5b600080fd5b600073ffffffffffffffffffffffffffffffffffffffff82169050919050565b600061039a8261036f565b9050919050565b6103aa8161038f565b81146103b557600080fd5b50565b6000813590506103c7816103a1565b92915050565b6000602082840312156103e3576103e2610365565b5b60006103f1848285016103b8565b91505092915050565b600080fd5b600080fd5b6000601f19601f8301169050919050565b7f4e487b7100000000000000000000000000000000000000000000000000000000600052604160045260246000fd5b61044d82610404565b810181811067ffffffffffffffff8211171561046c5761046b610415565b5b80604052505050565b600061047f61035b565b905061048b8282610444565b919050565b600067ffffffffffffffff8211156104ab576104aa610415565b5b6104b482610404565b9050602081019050919050565b82818337600083830152505050565b60006104e36104de84610490565b610475565b9050828152602081018484840111156104ff576104fe6103ff565b5b61050a8482856104c1565b509392505050565b600082601f830112610527576105266103fa565b5b81356105378482602086016104d0565b91505092915050565b6000806040838503121561055757610556610365565b5b6000610565858286016103b8565b925050602083013567ffffffffffffffff8111156105865761058561036a565b5b61059285828601610512565b9150509250929050565b6105a581610327565b81146105b057600080fd5b50565b6000813590506105c28161059c565b92915050565b600080604083850312156105df576105de610365565b5b60006105ed858286016103b8565b92505060206105fe858286016105b3565b9150509250929050565b6106118161038f565b82525050565b600060208201905061062c6000830184610608565b92915050565b600082825260208201905092915050565b7f43616e2774206769667420796f757273656c6600000000000000000000000000600082015250565b6000610679601383610632565b915061068482610643565b602082019050919050565b600060208201905081810360008301526106a88161066c565b9050919050565b7f41646420736f6d652067696674696e6720616d6f756e74000000000000000000600082015250565b60006106e5601783610632565b91506106f0826106af565b602082019050919050565b60006020820190508181036000830152610714816106d8565b9050919050565b7f4e487b7100000000000000000000000000000000000000000000000000000000600052601160045260246000fd5b600061075582610327565b915061076083610327565b9250827fffffffffffffffffffffffffffffffffffffffffffffffffffffffffffffffff038211156107955761079461071b565b5b828201905092915050565b600081519050919050565b60005b838110156107c95780820151818401526020810190506107ae565b838111156107d8576000848401525b50505050565b60006107e9826107a0565b6107f38185610632565b93506108038185602086016107ab565b61080c81610404565b840191505092915050565b600060c08201905061082c6000830189610331565b6108396020830188610608565b6108466040830187610608565b818103606083015261085881866107de565b90506108676080830185610331565b61087460a0830184610331565b979650505050505050565b60006040820190506108946000830185610608565b6108a16020830184610331565b939250505056fea2646970667358221220fb7047e505b53395632d082dd44ca37ae4eb77e7a8d5bedb41b4b2da908502f464736f6c63430008090033",
  "linkReferences": {},
  "deployedLinkReferences": {}
}